:0400000007EF00F016
:0A0008000A82A3ED04F0F6EF04F005
:100800000000076A086A010E096E066A0F0EC16EC3
:10081000966A070E8D6E956A08C08CFF9292899237
:10082000929489949482030ED56E850ED76EEE0E47
:10083000D66EF294F28AD58EF18CF292F288F18A19
:10084000F08CF090F086D250F00B0D09D26ED29E53
:10085000D288D2AAFED7A194A084F28CF28E82A272
:10086000096A0950D8B482A2FAD7410E016EEE0E81
:10087000E82EFED7012EFCD700D0082A0A0E081851
:10088000D8A41ED0060E0718D8B41AD0086A000ED5
:10089000036E000E026E8984530EE82EFED7000010
:1008A0008994530EE82EFED70000024A032A03BEA5
:1008B000F2D7580E025C020E0358D8A0ECD7072AD4
:1008C000060E0718D8A419D0000E056E000E046E8F
:1008D0008984530EE82EFED700008994530EE82E2B
:1008E000FED70000044A052A05BEF2D7D00E045CEC
:1008F000070E0558D8A0ECD7076A08C08CFF075030
:10090000D8A402D0010E16D00704D8A402D0050E38
:1009100011D0020E0718D8A402D0040E0BD0030E7B
:100920000718D8A402D0060E05D0040E0718D8A4C4
:1009300003D0020E8D6E04D0050E0718D8B48D6A50
:10094000010E096E8CD70600F2A41CD00650D8A464
:100950000BD0850ED76EEE0ED66EF29489B202D011
:10096000898210D089920ED00604D8A40BD0C20E72
:10097000D76EF70ED66EF29489B202D0898201D07A
:100980008992066AA1A403D0010E066EA194F2A278
:1009900022D0F292030E8D6EF2A4FED70650D8A498
:1009A0000BD0850ED76EEE0ED66EF29489B202D0C1
:1009B0008982F2D78992F0D70604D8A4EDD7C20E67
:1009C000D76EF70ED66EF29489B202D0898201D02A
:1009D0008992066AE1D7F0A007D0F090086A076A0A
:1009E00008C08CFF010E8D6E0A921100086A076A1A
:0C09F000066A0A900A92000101EF04F070
:020000040020DA
:08000000FFFFFFFFFFFFFFFF00
:020000040030CA
:0E000000000C1F1EFF8381FF0FC00FE00F409A
:00000001FF
