:0400000030EF00F0ED
:0600080031820CED06F050
:100018003180D8CF04F0E8CF05F0E0CF06F0F2A4A5
:100028000ED03050D8B404D0DC0ED76E240E03D0D6
:10003800700ED76E910ED66EF2948972306AA1A4B2
:1000480003D0010E306EA19406C0E0FF05C0E8FFA2
:0C00580004C0D8FF319010001BEF06F030
:1008000000000F0EC16E080E966E080E8D6E92944B
:10081000899492928992938093829482F18ED08E61
:10082000F28EF28CF18CF292F288040E266E0C0E8F
:10083000E82EFED7262EFCD781A009D0010E2B6E04
:10084000000E076E000E086E010ED0EC05F03EECB7
:1008500006F028EC06F02B50D8A411D0F00E956EBF
:100860008C50F00B8C6E000E35EC06F0000E076E0F
:10087000000E086E000ED0EC05F02D6A2C6A010EF9
:10088000276E286A2B50D8B410D0000E076E000EC9
:10089000086E010ED0EC05F04D0E266E4B0EE82EC4
:1008A000FED7262EFCD70000EDD7000E82B2010E37
:1008B000296E2704D8A418D02950D8A415D02D50BB
:1008C000D8A408D02C50D8A405D0010E2D6E000E4F
:1008D0008EEC04F061EC05F04D0E266E4B0EE82E0A
:1008E000FED7262EFCD7000029C027F0000E81B2CB
:1008F000010E2A6E2850D8A40ED02A04D8A40BD0FA
:100900002D50B8EC05F04D0E266E4B0EE82EFED79E
:10091000262EFCD700002AC028F0B4D70D6E30D0A8
:10092000000E076E010E086E010ED0EC05F01200ED
:10093000000E076E010E086E000ED0EC05F01200DE
:10094000010E076E010E086E000ED0EC05F01200CD
:10095000010E076E000E086E000ED0EC05F01200BE
:10096000010E076E000E086E010ED0EC05F01200AD
:10097000010E076E010E086E010ED0EC05F012009C
:10098000060E076E0D50E4EC05F00B6E0C6A0C5071
:10099000000AD8A4EDD70B50000AD8B4C1D7010A79
:1009A000D8B4C6D7030AD8B4CBD7010AD8B4D0D7A5
:1009B000070AD8B4D5D7DCD720C007F021C008F08B
:1009C000096A0A6AE80E0B6E030E0C6E000E0D6EBD
:1009D000000E0E6E8DEC05F007C013F008C014F089
:1009E00009C015F00AC016F0F40E176E010E186E4D
:1009F000000E196E000E1A6E20EC05F013C022F0E6
:100A000014C023F015C024F016C025F00AD0898444
:100A1000610EE82EFED700D08994610EE82EFED735
:100A200000D02206000E235A245A255A2228EFE12C
:100A30002328EDE12428EBE12528D8B41200E7D7DC
:100A4000000E1B6E000E1C6E000E1D6E000E1E6E44
:100A50001750181019101A10D8B42AD0010E1F6E92
:100A600006D0D8901736183619361A361F2A1AAEFD
:100A7000F8D7D8901B361C361D361E361750135C1F
:100A800018501458195015581A501658D8A009D093
:100A90001750135E1850145A1950155A1A50165AF6
:100AA0001B80D8901A321932183217321F2EE1D714
:100AB0001BC013F01CC014F01DC015F01EC016F0B2
:100AC00012002C50D8B40BD0010EB8EC05F0030E78
:100AD000216EE80E206EDCEC04F02C6A1200090E88
:100AE0002F6002D02F2A15D02F6A050E2E600BD052
:100AF0002E2A2E508EEC04F0000E216E500E206E29
:100B0000DCEC04F006D0050E2E6E090E2F6E010EE1
:100B10002C6E2F5035EC06F01200000E0F6E000EFA
:100B2000106E000E116E000E126E07A008D00B5052
:100B30000F260C5010220D5011220E501222D89068
:100B40000B360C360D360E36D8900A320932083282
:100B500007320750081009100A10D8A4E6D70FC0B2
:100B600007F010C008F011C009F012C00AF012001E
:100B70000E6E2F6A2E6A2C6A000E35EC06F00E50AF
:100B8000D8B404D0000E8EEC04F007D0000E076E2F
:100B9000000E086E000ED0EC05F00EC02DF0120015
:100BA000096E0950D8B402D08D8201D08D920750C1
:100BB000D8B402D08D8001D08D900850D8B402D026
:100BC0008D8412008D941200086E080E096E0A6A58
:100BD000D89008340A340A6ED890083607500A5C58
:100BE000D8A002D007500A5E092EF2D70A50120090
:100BF000036E0350D8B402D08D8201D08D92015083
:100C0000D8B402D08D8001D08D900250D8B402D0DB
:100C10008D8412008D9412000600F2A20AD0010EFB
:100C20002B6E000E016E000E026E010EF8EC05F048
:100C3000F29231921100306A2F6A2E6A2D6A2C6A64
:100C40002B6A31903192000EF86E000101EF04F032
:100C5000D26AD250F00B0C09D26ED29ED288D2AAA0
:100C6000FED7A194A294A0841200076E07500F0B28
:100C7000086E8C50F00B08108C6E1200030ED56EAF
:0A0C8000F194F294F28AD58E12006E
:020000040020DA
:08000000FFFFFFFFFFFFFFFF00
:020000040030CA
:0E000000000C1F1EFF8181FF0FC00FE00F409C
:00000001FF
