:0400000007EF00F016
:0A000800298212ED06F007EF06F062
:100800000000ACEC05F0F7EC05F0000E1DEC06F076
:10081000000E016E000E026E000E5DEC05F0266A01
:10082000256A010E216E226A81A010D0000E016E91
:10083000000E026E010E5DEC05F01A0E206EF80E31
:10084000E82EFED7202EFCD700D0EED7000E82B2C5
:10085000010E236E2104D8A418D02350D8A415D09B
:100860002650D8A408D02550D8A405D0010E266E55
:10087000000E5FEC04F086EC05F09C0E206ED70EA7
:10088000E82EFED7202EFCD7000023C021F0000E5A
:1008900081B2010E246E2250D8A40ED02404D8A414
:1008A0000BD02650CBEC05F09C0E206ED70EE82E18
:1008B000FED7202EFCD7000024C022F0B5D7076E4B
:1008C00030D0000E016E010E026E010E5DEC05F0DF
:1008D0001200000E016E010E026E000E5DEC05F0BE
:1008E0001200010E016E010E026E000E5DEC05F0AD
:1008F0001200010E016E000E026E000E5DEC05F09E
:100900001200010E016E000E026E010E5DEC05F08C
:100910001200010E016E010E026E010E5DEC05F07B
:100920001200060E016E0750E3EC05F0056E066A34
:100930000650000AD8A4EDD70550000AD8B4C1D794
:10094000010AD8B4C6D7030AD8B4CBD7010AD8B4A1
:10095000D0D7070AD8B4D5D7DCD71AC001F01BC04E
:1009600002F0036A046AE80E056E030E066E000EBE
:10097000076E000E086E32EC05F001C00DF002C0EB
:100980000EF003C00FF004C010F0F40E116E010E53
:10099000126E000E136E000E146EF1EC04F00DC01A
:1009A0001CF00EC01DF00FC01EF010C01FF00AD0CA
:1009B0008984A60EE82EFED700D08994A60EE82ED4
:1009C000FED700D01C06000E1D5A1E5A1F5A1C28A6
:1009D000EFE11D28EDE11E28EBE11F28D8B412003D
:1009E000E7D7000E156E000E166E000E176E000E85
:1009F000186E1150121013101410D8B42AD0010E12
:100A0000196E06D0D8901136123613361436192ABC
:100A100014AEF8D7D890153616361736183611504A
:100A20000D5C12500E5813500F5814501058D8A087
:100A300009D011500D5E12500E5A13500F5A145017
:100A4000105A1580D8901432133212321132192EE6
:100A5000E1D715C00DF016C00EF017C00FF018C08A
:100A600010F01200000E096E000E0A6E000E0B6EE2
:100A7000000E0C6E01A008D00550092606500A226F
:100A800007500B2208500C22D89005360636073640
:100A90000836D8900432033202320132015002107B
:100AA00003100410D8A4E6D709C001F00AC002F070
:100AB0000BC003F00CC004F01200046E0450D8B454
:100AC00003D0036A032A01D0036A034603468D500C
:100AD0000318FB0B03188D6E0150D8B403D0036AC2
:100AE000032A01D0036A03468D500318FD0B031837
:100AF0008D6E0250D8B403D0036A032A01D0036A72
:100B00008D500318FE0B03188D6E12002550D8B4BB
:100B100005D0010ECBEC05F0256A1200090E286005
:100B200002D0282A15D0286A050E27600BD0272A64
:100B300027505FEC04F0000E1B6E500E1A6EADECE9
:100B400004F006D0050E276E090E286E010E256EE4
:100B500028501DEC06F01200700ED312D350FC0B7F
:100B60000209D36E0F0EC16E070EB46EF00E956EB5
:100B70008C50F00B8C6E9694969296908D6A92940F
:100B8000899492928992938093829482F18ED08EEE
:100B9000F28EF28C1200086E286A276A256A000E0F
:100BA0001DEC06F00850D8B404D0000E5FEC04F041
:100BB00007D0000E016E000E026E000E5DEC05F017
:100BC00008C026F01200026E080E036E046AD89068
:100BD00002340434046ED89002360150045CD8A06C
:100BE00002D00150045E032EF2D704501200D59EAD
:100BF000D59CD59AD596D584D582D580F184F294AA
:100C0000F28AF00ED76EBE0ED66ED58E1200286A0E
:100C1000276A266A256A29902992000EF86E00013B
:100C200001EF04F00600F2A406D0F294F00ED76EA5
:100C3000BE0ED66E897229921100016E01500F0B03
:0C0C4000026E8C50F00B02108C6E120043
:020000040020DA
:08000000FFFFFFFFFFFFFFFF00
:020000040030CA
:0E0000000008191EFF0181FF0FC00FE00F4026
:00000001FF
